:400000000010002011000000FD010000FD01000010B500F08BFB00F0F9F8C04670B5114C12232360182000F0F9FA802252010E4B1A600E4A8023DB051A6000250C4B1D60F6
:4000400040220C4B1A600C490B2000F02FFA0B2000F016FA094B1D60002000F06FFB1123236070BD300010400003004040FF00802800034004010040D10700000C020640FC
:4000800010B572B6094A0A4B1A600022094B1A602023094A13600949094A1160094A1360FFF7BCFF00F09EF810BDC046EE0099000000024004013F40000004403610030078
:4000C0000800044018000440000000000000000000000000000000000000000000000000000000000000000000000000000000000000000000000000000000000000000058
:4001000010B5064C2378002B07D1054B002B02D0044800E000BF0123237010BD280100200000000090090000084B10B5002B03D00749084800E000BF07480368002B00D161
:4001400010BD064B002BFBD09847F9E7000000002C01002090090000A80000200000000010B500F0B3F810BD10B500F037F9C0B2124B1870002820D0114B1B78114AD0540F
:400180000D2816D110000024D4540F4B1A6000F03BF90B4B1C7005E000210A4AD1540133074A1370064B1B78642BF5D9FF22044B1A70034A13780133137010BDD4010020DA
:4001C000440100206C010020D001002010B5FFF7C7FF034800F018F9FFF7C6FFFCE7C046940900000322034B1A601D32024B1A607047C04608013F40000E3F4010B500F084
:400200009BFB03680C2B00D1FEE7FEE770B50F4E0F4D13E029686B68AC68002202E001C901C30432A242FAD1E868002202E0002102C304328242FAD11035013E002EE9D1C0
:4002400000F080FBFFF7C2FFFEE7C04601000000D409000010B500230AE0032B03D89A000849505800E008489900084A88500133282BF2D9FFF704FF80229205044B1A60E5
:4002800010BDC04600000000FD0100000000002008ED00E010B5092000F0F2F810BDC04610B500F085F810BD10B500F01FF810BD10B5054A1368802109060B431360FFF74F
:4002C000E9FFFFF7EDFF10BD0000084010B5064B1B78002B04D1FFF7E7FF0122024B1A70FFF7E6FF10BDC0464801002070B51B4A1B4B1A6000241B4B1C601B4A1B4B1A60D4
:400300001B4B1C4A136007211B4A11601B4A146006391B4A11601B4A13601B4B1C6004251A4B1D60092000F0B5F80321092000F0CFF81749092000F0B9F8164B1C60164B9B
:400340001C60164B1C60164B1C60164B1D60164B1C601A68154B1A8070BDC0460B000002000008404000084001000A004800084007000080000308400403084010030840E9
:4003800044000840000208400402084050000840D1080000880E0840C80E0840480F0840080F0840C80F0840880F084050010020064A1168064B0B40902109040B4313605B
:4003C000044B1A88044B1A607047C04600000240FFFF0FFF50010020880F084010B500F061FA002802D000F057FA00E00020054B1A68D8239B001A4203D01A00014B1A6026
:40040000002010BDC00F084070B50500002402E000F050FA0134285D0028F9D170BDC0460C4B1B689B001C22134018330A4A1268920803210A40D34008490868084A0240E0
:400440000A60084A944663441B78DBB2064A13607047C046080F03402800034000000640FFFFFFBFCDF1FF0F0C0F0340034B18688023DB05184000D0012070470000064017
:400480001F2318401E3B8340014A13607047C04600E100E01F2318401E3B8340014A13607047C04680E100E001BE704770B504000D00182802D90020FFF7F6FF1034A4001E
:4004C00080239B059C4664442068256070BDC04670B504000E00032902D90020FFF7E4FF182C02D90020FFF7DFFF03252540ED00063500F0CAF9A408A400074B9C46644411
:4005000021680323AB4099430B003100A9401943216000F0BEF970BD00E400E010B5040006E0084B586800F0A7F9074B9C46644480231B029C42F4D8024B9868604300F033
:400540009BF910BDAC0000200080FFFF70B582B000F0E2F800284DD000F097F90500264B1A6892001C231A401832244B1B689B0803210B40DA400021214B1960214C216863
:40058000214B0B4021494A438021C9018C466244D20B013A5205520D1343A0225203134323601B4B1B680193302000F09BF9194A13688021C9050B4313602668164B1E40EA
:4005C000002407E00120FFF7A9FF1034A30533430C4A1360EE2CF5D90120FFF79FFFFF239B051E43074B1E60019A094B1A60280000F04FF902B070BD080F03402800034009
:400600000C0F03400800064000F800C040420F003000104000000640FFFF3FC0F0B583B0040018280BD01C2809D0202807D0242805D0282803D02C2801D0302849D100F004
:4006400024F90190FFF712FF002803D0FFF7E8FE012600E00026214A136807218B4313601F4BE3181B78DBB21E4A13601E4A13688B4313601D4803687F22934319001C4B27
:40068000E3181B7813400B430360322000F0F4F8182C16D9114F3B680725AB431A0023001C3B9B082B4013433B60322000F0E4F83A68AA432300183B9B082C001C401443F2
:4006C0003C60012E01D1FFF741FF019800F0E1F802E00020FFF7E8FE03B0F0BD080F0340CDF1FF0F0C0F0340100F0340180F0340B4F1FF0F10B5034B1B7B584300F0BCF89C
:4007000010BDC046AC000020024B1868800F80077047C0460C020640034B1B68002B01DA012000E00020704700000640014A024B1A6070476588EDAC3800034010B504009E
:40074000FFF7E2FFA0421AD0144A136803218B431360134B1B689B0F01D17C2001E086204000FFF7C7FF00F090F80D4A13689B009B08A40FA4071C43146000F08AF8074B9F
:400780001B6803229343064A1268920F01D1023200E001221343014A136010BD140206400C02064010B5040000F06FF8054B1C4005490B68054A134023430B600B6800F053
:4007C00068F810BD0404040010020640FBFBFBFF10B5244B1B685B0715D5234B1B685B070ED5224B5969042001401F4C22688A4322605A6982435A619B68002B00D0984747
:400800000420FFF7CFFF174B1B685B0518D5164B1B685B0510D5154B59698022D2001140114802688A4302605969114A0A405A61DB68002B00D098478020C000FFF7B2FF56
:40084000084B1B685B030CD5074B1B685B0304D5064B1B69002B00D098478020C002FFF7A1FF10BD10020640C000002054010020FFFBFFFF000000000230800803D0013080
:400880000238FCD1C046C0467047EFF3108072B6704780F310887047014B18687047C04640030840024B1B681F2018407047C04608030840044B1B681F221340082BF9D06E
:4008C000024B18607047C046080208404002084010B5034B1B68002B00D0984710BDC0464C01002070B50400FFF7CFFF0500102C05D8104A136803218B43136016E0202C63
:4009000007D80C490B6803229343023A13430B600CE0302C07D807490B6803229343013A13430B6002E00020FFF7BEFD2800FFF7B0FF70BD30001040014B18687047C04681
:40094000240100200E4B70B500251E000D4CE41AA410A54204D0AB00F35898470135F8E700F026F8084B00251E00084CE41AA410A54204D0AB00F35898470135F8E770BD45
:40098000BC090000BC090000BC090000C409000000000000435938434B49542D303431205553422D554152540000000043000000F8B5C046F8BC08BC9E46704729010000B4
:4009C00055020000F8B5C046F8BC08BC9E46704701010000E8090000A800002080000000B00000000000000000000000010000000000E02EC05D00001800000000366E0106
:400A0000040404000000000000000000000000000000000000000000000000000000000000000000AC090000000000000000000000000000000000000000000000000000F5
:400A4000000000000000000000000000000000000000000000000000000000000000000000000000C400002000000000000000000000000000000000000000000000000092
:400A80000000000000000000000000000000000000000000000000000000000000000000000000000000000000000000000000000000000000000000000000000000000036
:400AC00000000000000000000000000000000000000000000000000000000000000000000000000000000000000000000000000000000000000000000000000000000000F6
:400B000000000000000000000000000000000000000000000000000000000000000000000000000000000000000000000000000000000000000000000000000000000000B5
:400B40000000000000000000000000000000000000000000000000000000000000000000000000000000000000000000000000000000000000000000000000000000000075
:0200000490303A
:020000000A2EC6
:0200000490402A
:200000000000000000000000000000000000000000000000000000000000000000000000E0
:0200000490501A
:0C00000000021C2021AC00011C232BDAA4
:0200000490600A
:0100000001FE
:00000001FF