:400000000010002011000000C5020000C502000010B500F007FC00F075F9C04610B5184C12232360182000F075FB80225200154B1A608023DB051449196014490A60144A10
:400040001A6080214901134A1160134A1A602022124B1A602132124B1A600132114B1A6011490B2000F09EFA0B2000F085FA00220E4B1A60002000F0DDFB1123236010BD22
:40008000300010400003004040FF00800403004041FF00800803004042FF0080280003403001004004010040C90800000C02064010B572B6104A114B1A60C022D200104B39
:4000C0001A6000220F4B1A6020230F4A13600F490F4A11600F4A136060330F4A13600F4A13607C3B0E4A13600E4A1360FFF796FF00F0B4F810BDC046EE0099000000024058
:400100000003024004013F40000004403610030008000440180004400002044018020440000304401803044010B5064C2378002B07D1054B002B02D0044800E000BF012366
:40014000237010BD3001002000000000D01B0000084B10B5002B03D00749084800E000BF07480368002B00D110BD064B002BFBD09847F9E70000000034010020D01B0000C5
:40018000A80000200000000010B500F01BF900F0FDFC00F07FFE00F0A5FD10BD10B584B000F098F9C0B21A4B187000282DD0194B1B78194AD0540D2823D110000024D454F8
:4001C000164B1A6000F09CF9002000F09FFD00F0E7FB0200124901A801F0D6F801A800F08FF90C4B1C7005E000210B4AD1540133084A1370074B1B78632BF5D9FF22054B1D
:400200001A70044A13780133137004B010BDC046F40100204C0100208C010020F0010020D41B000010B5FFF7AFFF034800F068F9FFF7B4FFFCE7C046D81B0000064B1B6890
:40024000002803D080221206134301E05B005B08014A13607047C04680033A4010B580231B060D4A13600D490D4A11600D4A13600D4A0E4B1A6003220D4B1A600D4A0E4B50
:400280001A60F1220D4B1A60D13A0D4B1A600120FFF7D4FF10BDC04600003040010000208000304000003840010000011000384008013F400100008000023F4004023F40B3
:4002C000000E3F4010B501F029F803680C2B00D1FEE7FEE710B50300084A1068C318084A9A1A802A02DC054A136005E001F016F80C2303600120404210BDC046AC000020E8
:400300000802002070B50F4E0F4D13E029686B68AC68002202E001C901C30432A242FAD1E868002202E0002102C304328242FAD11035013E002EE9D100F0F6FFFFF772FF1C
:40034000FEE7C04601000000681D000010B500230AE0032B03D89A000849505800E008489900084A88500133282BF2D9FFF7A0FE80229205044B1A6010BDC04600000000F0
:40038000C50200000000002008ED00E010B5092000F0F2F810BDC04610B500F085F810BD10B500F01FF810BD10B5054A1368802109060B431360FFF7E9FFFFF7EDFF10BDC1
:4003C0000000084010B5064B1B78002B04D1FFF7E7FF0122024B1A70FFF7E6FF10BDC0465001002070B51B4A1B4B1A6000241B4B1C601B4A1B4B1A601B4B1C4A13600721FB
:400400001B4A11601B4A146006391B4A11601B4A13601B4B1C6004251A4B1D60092000F0B5F80321092000F0CFF81749092000F0B9F8164B1C60164B1C60164B1C60164B47
:400440001C60164B1D60164B1C601A68154B1A8070BDC0460B000002000008404000084001000A0048000840070000800003084004030840100308404400084000020840CC
:400480000402084050000840710F0000880E0840C80E0840480F0840080F0840C80F0840880F084058010020064A1168064B0B40902109040B431360044B1A88044B1A60C7
:4004C0007047C04600000240FFFF0FFF58010020880F084010B500F035FD002802D000F02BFD00E00020054B1A68D8239B001A4203D01A00014B1A60002010BDC00F084025
:4005000070B50500002402E000F024FD0134285D0028F9D170BDC0460C4B1B689B001C22134018330A4A1268920803210A40D34008490868084A02400A60084A94466344CF
:400540001B78DBB2064A13607047C046080F03402800034000000640FFFFFFBFCDF1FF0F0C0F0340034B18688023DB05184000D001207047000006401F2318401E3B83409D
:40058000014A13607047C04600E100E01F2318401E3B8340014A13607047C04680E100E001BE704770B504000D00182802D90020FFF7F6FF1034A40080239B059C46644406
:4005C0002068256070BDC04670B504000E00032902D90020FFF7E4FF182C02D90020FFF7DFFF03252540ED00063500F09EFCA408A400074B9C46644421680323AB40994390
:400600000B003100A9401943216000F092FC70BD00E400E010B5040006E0084B586800F07BFC074B9C46644480231B029C42F4D8024B9868604300F06FFC10BDB0000020F2
:400640000080FFFF70B582B000F0E2F800284DD000F06BFC0500264B1A6892001C231A401832244B1B689B0803210B40DA400021214B1960214C2168214B0B4021494A430A
:400680008021C9018C466244D20B013A5205520D1343A0225203134323601B4B1B680193302000F06FFC194A13688021C9050B4313602668164B1E40002407E00120FFF79E
:4006C000A9FF1034A30533430C4A1360EE2CF5D90120FFF79FFFFF239B051E43074B1E60019A094B1A60280000F023FC02B070BD080F0340280003400C0F034008000640A7
:4007000000F800C040420F003000104000000640FFFF3FC0F0B583B0040018280BD01C2809D0202807D0242805D0282803D02C2801D0302849D100F0F8FB0190FFF712FF24
:40074000002803D0FFF7E8FE012600E00026214A136807218B4313601F4BE3181B78DBB21E4A13601E4A13688B4313601D4803687F22934319001C4BE3181B7813400B43AC
:400780000360322000F0C8FB182C16D9114F3B680725AB431A0023001C3B9B082B4013433B60322000F0B8FB3A68AA432300183B9B082C001C4014433C60012E01D1FFF7DF
:4007C00041FF019800F0B5FB02E00020FFF7E8FE03B0F0BD080F0340CDF1FF0F0C0F0340100F0340180F0340B4F1FF0F10B5034B1B7B584300F090FB10BDC046B0000020DD
:40080000024B1868800F80077047C0460C020640034B1B68002B01DA012000E00020704700000640014A024B1A6070476588EDAC3800034010B50400FFF7E2FFA0421AD099
:40084000144A136803218B431360134B1B689B0F01D17C2001E086204000FFF7C7FF00F064FB0D4A13689B009B08A40FA4071C43146000F05EFB074B1B6803229343064AC5
:400880001268920F01D1023200E001221343014A136010BD140206400C02064010B5040000F043FB054B1C4005490B68054A134023430B600B6800F03CFB10BD0404040039
:4008C00010020640FBFBFBFF10B5244B1B685B0715D5234B1B685B070ED5224B5969042001401F4C22688A4322605A6982435A619B68002B00D098470420FFF7CFFF174B35
:400900001B685B0518D5164B1B685B0510D5154B59698022D2001140114802688A4302605969114A0A405A61DB68002B00D098478020C000FFF7B2FF084B1B685B030CD58A
:40094000074B1B685B0304D5064B1B69002B00D098478020C002FFF7A1FF10BD10020640C40000205C010020FFFBFFFF10B50A00C117D31700F0A6FC00290BDA002342426E
:400980008B411B02120E1A431000D117002342428B4103E00B02000E18430200100010BD30B59FB0050078223149684600F0E2FC002D1BDA03DA6D42ED026D4200E0ED024A
:4009C000092400200AE063001B199A006B46D358C0182900FFF7CAFF013CE4B2002CF2D1C3175B06C209134318003EE0214B9D421CDC002D03DA6D426D026D4200E06D0236
:400A0000092400200AE06200121993006B445B68C0182900FFF7AAFF013CE4B2002CF2D1C217D20743081A4310001EE0002D03DA6D422D026D4200E02D02092400200AE046
:400A40006200121993006B449B68C0182900FFF78DFF013CE4B2002CF2D1074B9C466044C2175206C3091A4310001FB030BDC046F01B0000A4500000B641E6FF04490868C3
:400A8000044B1B680322134003430B607047C046040030407401002030B5204C204B216819400304F022120313400B4323601D4C25681D4929401A4011430D005A0C072177
:400AC0001140032213405A1E4B005B189B189B00164A9B58F02212051A402B0013432360002804D180225205114B1A6003E080225205104B1A60094B1B685A0C072111409C
:400B0000032003405A1E4B005B189B189B00074A9B580340084A136030BDC04674010020FFFFF0FF04003040FFFFF0F08C1C00008400304080003040080F304010B50E4A88
:400B40000E4B1A600E4A1368802109060B4313600C4B19680C4A0A401A601A68802109010A431A601B689B0701D0FFF787FF0A20FFF792FF10BDC04603000A0074010020E0
:400B80000000304004003040FBF7FFFF10B5064B1B79002B04D1FFF7D1FF0122024B1A71FFF76CFF10BDC046740100200A4B1B688268F0210A40402A01D0002A04D1074A85
:400BC00013400122134304E001229343802292051343014A1360704730003A40FFFFFFDF8000114B9C4660440268104B1A420BD00F4B1A68D3009A1AD3000E4AD318DB68A8
:400C00001B070DD400200EE0094B1A68D3009A1AD300084AD318DB685B0703D4002002E0012000E00120704780003A40000100017C010020D41C000010B5040000F050F954
:400C4000A08E002100F058F9FF2000F03BF9A368194A1268002A02DA8022520300E000221343164A1360164BE2681A60154BA2691A60154BE2691A60144B22691A60144B9F
:400C800062691A60134A00211160134B1960A16A1160626A1A600122104B1A60002306E09A000F498C46624400211160013362689342F5D310BDC04680033A4000003A4085
:400CC00004003A4018003A401C003A4010003A4014003A4028023A4038023A4018023A4080003A40074B1B685B0306D5054A1368802149020B43136002E00122024B1A60FF
:400D00007047C04604003A4024003A4070B50500144B1A68D3009A1AD300134AD3185B68834202D80020FFF73BFC0E4B1A68D3009A1AD3000C4AD3185B689D4207D2AB00E2
:400D40000A4A944663441C682404240C00E000242800FFF745FF012801D120B200E0200070BDC0467C010020D41C000080013A40F0B5474680B42D4B1B79002B38D051E0FE
:400D8000EA00521BD3002A4AD318DB685B070FD5EA00521BD300264AD3189B68E02212011340934204D163002249234A995203E063000021204A99521D4B9846EF007B1BDA
:400DC000DE004644F16A1D4BC818490000F08EF900B2A3001A4A98507F1BFB0042469A587368D318013B9C4200D10135013401E000250024002CC3D003210F20FFF7E4FB4B
:400E000010490F20FFF7CEFB084B5B79002B09D10122064B5A71064C2000FFF70DFF226A094B1A6004BC9046F0BDC0467C010020D41C000000F8FFFFF801002000007102DA
:400E4000FC010020B90E000020003A4010B50D4B1B68002B0CDB0C4B1B68002BFBDB094A1368802109060B4313600A20FFF7BEFC064B1A68D3009B1AD800054BC018FFF7FD
:400E800095FE10BD00003A40A0023A407C010020D41C000010B5074B1B79DB0706D4FFF767FF044A117901230B431371FFF7CEFF10BDC0467C010020014B1A681A607047EC
:400EC00010023A408023DB051B68002BFADB0002024B18438023DB0518607047410000808023DB051B68002BFADB024A8023DB051A6070474100004010B5064A1368072401
:400F0000234000021843CB00FF2119400143116010BDC046040300400230800803D001300238FCD1C046C0467047EFF3108072B6704780F310887047014B18687047C046BA
:400F400040030840024B1B681F2018407047C04608030840044B1B681F221340082BF9D0024B18607047C046080208404002084010B5034B1B68002B00D0984710BDC0466C
:400F80005401002070B50400FFF7CFFF0500102C05D8104A136803218B43136016E0202C07D80C490B6803229343023A13430B600CE0302C07D807490B6803229343013A76
:400FC00013430B6002E00020FFF7EAFA2800FFF7B0FF70BD30001040002243088B4274D303098B425FD3030A8B4244D3030B8B4228D3030C8B420DD3FF22090212BA030CC4
:401000008B4202D31212090265D0030B8B4219D300E0090AC30B8B4201D3CB03C01A5241830B8B4201D38B03C01A5241430B8B4201D34B03C01A5241030B8B4201D30B03B5
:40104000C01A5241C30A8B4201D3CB02C01A5241830A8B4201D38B02C01A5241430A8B4201D34B02C01A5241030A8B4201D30B02C01A5241CDD2C3098B4201D3CB01C01AB1
:40108000524183098B4201D38B01C01A524143098B4201D34B01C01A524103098B4201D30B01C01A5241C3088B4201D3CB00C01A524183088B4201D38B00C01A5241430898
:4010C0008B4201D34B00C01A5241411A00D20146524110467047FFE701B5002000F0F0F802BDC0460029F7D076E7704703460B437FD4002243088B4274D303098B425FD3B0
:40110000030A8B4244D3030B8B4228D3030C8B420DD3FF22090212BA030C8B4202D31212090265D0030B8B4219D300E0090AC30B8B4201D3CB03C01A5241830B8B4201D38C
:401140008B03C01A5241430B8B4201D34B03C01A5241030B8B4201D30B03C01A5241C30A8B4201D3CB02C01A5241830A8B4201D38B02C01A5241430A8B4201D34B02C01ABB
:401180005241030A8B4201D30B02C01A5241CDD2C3098B4201D3CB01C01A524183098B4201D38B01C01A524143098B4201D34B01C01A524103098B4201D30B01C01A52413D
:4011C000C3088B4201D3CB00C01A524183088B4201D38B00C01A524143088B4201D34B00C01A5241411A00D201465241104670475DE0CA0F00D04942031000D34042534003
:4012000000229C4603098B422DD3030A8B4212D3FC22890112BA030A8B420CD3890192118B4208D3890192118B4204D389013AD0921100E08909C3098B4201D3CB01C01A83
:40124000524183098B4201D38B01C01A524143098B4201D34B01C01A524103098B4201D30B01C01A5241C3088B4201D3CB00C01A524183088B4201D38B00C01A5241D9D276
:4012800043088B4201D34B00C01A5241411A00D20146634652415B10104601D34042002B00D54942704763465B1000D3404201B5002000F005F802BD0029F8D016E77047F1
:4012C0007047C046F0B54F464646C0B41604360C9946330005042C0C070C150C63437E436F4365431C0CAD1964199C46A64203D980235B02984647446346250CEF191D04D6
:401300004B464A4343432D0C240464199918C91920000CBC90469946F0BDC046014B18687047C046280100200E4B70B500251E000D4CE41AA410A54204D0AB00F35898471A
:401340000135F8E700F0FEFC084B00251E00084CE41AA410A54204D0AB00F35898470135F8E770BD501D0000501D0000501D0000581D0000002310B59A4203D0CC5CC4546D
:401380000133F9E710BD00000EB410B59DB002A9029008610B48822488604861012040421FABC881084804CBA400006801938C8100F06EF80023029A13701DB010BC08BCD1
:4013C00003B01847FFFFFF7F28010020F0B58E6885B007000C00039201939E4243D890238A89DB001A423ED003250969236801985B1A029363695D43EB0F5D19029B6D1046
:4014000001331B18AB4200D91D00530510D52900380000F037FB061E14D0029A2169FFF7A9FFA289194B134080221343A38112E02A00380000F086FB061E0CD12169380050
:4014400000F0D4FA0C23402201203B60A38940421343A38117E0029B2661F61826606561019EED1AA560019BB34200D21E0032000399206800F0A5FA0020A3689B1BA360CF
:4014800023689E19266005B0F0BDC0467FFBFFFFF0B59FB0029005938B890F0016001B0610D50B69002B0DD1402100F0EBFA38603861002804D10C23029A01381360D8E017
:4014C00040237B61002306AD6B6120336B761033AB7634002378002B03D1A31B049312D003E0252BF9D00134F4E7A31B320039000298FFF76BFF431C00D1B4E06A69049B09
:40150000944663446B612378002B00D1ABE00122002352426A6002A95432521801342B60EB60AB601370AB65534E21780522300000F03CFA002807D00123801B83402A688A
:40154000013413432B60EFE72B68DA0604D55322202102A8121811701A0704D553222B2102A81218117022782A2A03D0099B00200A210EE0059A111D12680591002A01DB97
:40158000099204E05242EA60022213432B6001340BE02278303A092A04D84B4301349B180120F6E7002800D0099323782E2B1ED163782A2B0AD1059B02341A1D1B68059279
:4015C000002B01DA01235B42079310E000230A201A0001346B6021783039092904D84243013452180123F6E7002B00D00792234E21780322300000F0D9F9002806D04023E8
:40160000801B83402A68013413432B60217806221B48661C297600F0C9F9002812D0194B002B06D10722059B073393430833059314E005AB00933A00134B2900029800E01F
:4016400000BF07E005AB00933A000F4B2900029800F08AF80390039B013304D06B69039A9B186B6135E7BB890B985B0601D5012040421FB0F0BDC0460E1D0000141D0000D4
:40168000181D000000000000CD130000F7B5170001938A680B6900900C00934200DA130022003B6043321278002A01D001333B6023689B0602D53B6802333B600625236848
:4016C0001D401ED0230043331B785A1E9341226892061CD53020E1184331087021005A1C45310978A2184332023311700FE022000123193201990098089EB047431C0ED0E0
:401700000135E3683A689B1A9D42F0DBDAE72200019943320098089DA847431C02D10120404220E006232068E1683A6803400025042B03D18D1AEB43DB171D40A368226973
:40174000934201DD9B1AED180027BD420AD0220001231A3201990098089EB047431CDED00137F2E70020FEBDF0B58BB006920A0043320793059004920A7E0C00109B6E2A0F
:4017800000D1ABE011D8632A22D009D8002A00D1B5E0582A00D0C5E045310A70814A4FE0642A1DD0692A1BD0BCE0732A00D1AAE009D86F2A29D0702A00D0B3E02022096863
:4017C0000A43226037E0752A1FD0782A33D0A9E00E001A684236111D196013683370A4E021681A68080606D4490604D5111D19600023D55E02E0111D19601568002D3BDA96
:401800002D23049A6D42137036E021681A68080606D4490604D51568111D1960ADB202E0111D196015685F4B227E039308276F2A1DD00A271BE022007821453211705A4AB6
:4018400019680392081D226818600D68100602D4500600D5ADB2D30702D520231A4322601027002D03D1202322689A4322602300002243331A7002E00A274A4B03936368BB
:40188000A360002B09DB0422216891432160002D05D1049E002B11D07BE0002D79D0049E28003900FFF71EFC039B013E5B5C280033703900FFF790FB051EF1D1082F09D16E
:4018C0002368DB0706D563682269934202DC3023013E3370049B9B1B23612BE009681A68080607D4490605D5111D19601368A28A1A8004E0111D1960136862691A60002323
:40190000049E236116E01A68111D1960166800216268300000F04AF8002801D0801B6060636803E0260042363270012323610023049A1370079B09AA00932100069B059822
:40194000FFF7A4FE431C02D10120404227E02369320006990598079DA847431CF4D0236800259B070FD4099BE068984217DA180015E022000123193206990598079EB047E1
:40198000431CE1D00135E368099A9B1A9D42F0DBE9E72600039B42361B7833708EE70BB0F0BDC0461F1D0000301D0000C9B28218904204D003788B4202D00130F8E70020E1
:4019C000704710B5884202D98B18984201D3002305E09B1A013A08D3995C8154FAE7934203D0CC5CC4540133F9E710BD70B50500002944D00C1F2368002B00DAE4182800E8
:401A000000F0D8F81E4A13681100002B02D16360146031E0A3420DD92268A018834203D118685B688218226063600C6024E0A24203D813005A68002AF9D11E689819A042D3
:401A40000BD12168711858181960824214D110685268411819605A600EE0A04202D90C232B6009E021686018824203D1106852684118216062605C60280000F09CF870BDDE
:401A800088010020032370B5CD1C9D43083506000C2D01D20C2501E0002D01DBA94202D90C23336048E0300000F084F8234B1C681A002100002913D00B685B1B0DD40B2B7A
:401AC00002D90B60CC181EE08C4202D1636813601AE04B6863600C0016E00C004968E9E7174C2368002B03D1300000F051F820602900300000F04CF8431C18D00323C41C30
:401B00009C43A0420DD12560300000F054F8200007220B30231D9043C31A0ED05A42E2500BE0211A300000F033F8431CEBD10C233000336000F03FF8002070BD880100205A
:401B400084010020F8B506000C001500002904D11100FFF797FF040018E0002A03D1FFF745FF2C0012E000F027F885420ED929003000FFF787FF071E07D021002A00FFF730
:401B8000F9FB21003000FFF731FF3C002000F8BD002370B5064C050008002360FEF79AFB431C03D12368002B00D02B6070BDC04600020020704770470B1F1A68101F002AE9
:401BC00004DA891804390B68D0180438704700000000000025640000435938434B49542D303431205553422D55415254000000000000000000000000B641E6FF0D472800C6
:401C000024820200B7446A0296B6F0FFEF41000089359BFAB9AC8BFF721FE5FF8444BC0BF657EAFC4B912401A7F66AF2BA327DF5562C78FAEB5B1E08831C06EC2EDC770ED9
:401C40001FA01EFEA16642ECF8EEA8EA00000000CC36F7F7C9ADC210000000000000000009A688FA000000000000000027500600AC45010079E6FDFF08A010004BBF67FF81
:401C800048C8980299994BFAF24E02050200000F0200000F0200000F020000080200000902000009010000030200000502000004010000000200000202000003010000004D
:401CC00002000000020000010100000001000000010000000000000001000000C00E20501C0104906A000200020002000002000E000000000100000000000000000000006B
:401D0000B004000001000000010000004300232D302B2000686C4C0065666745464700303132333435363738394142434445460030313233343536373839616263646566B7
:401D400000000000F8B5C046F8BC08BC9E467047510100004D030000F8B5C046F8BC08BC9E46704729010000781D0000A800002088000000D8000000000000000802002024
:401D8000010000000000E02EC05D00001800000000366E010404040000000000000000000000000000000000000000000000000000000000000000000C1D00000000000005
:401DC0000000000000000000000000000000000000000000000000000000000000000000000000000000000000000000000000000000000000000000C800002000000000FB
:401E000000000000000000000000000000000000000000000000000000000000000000000000000000000000000000000000000000000000000000000000000000000000A2
:401E40000000000000000000000000000000000000000000000000000000000000000000000000000000000000000000000000000000000000000000000000000000000062
:401E80000000000000000000000000000000000000000000000000000000000000000000000000000000000000000000000000000000000000000000000000000000000022
:401EC00000000000000000000000000000000000000000000000000000000000000000000000000000000000000000000000000000000000000000000000000000000000E2
:0200000490303A
:02000000355277
:0200000490402A
:200000000000000000000000000000000000000000000000000000000000000000000000E0
:0200000490501A
:0C00000000021C2021AC00011C2956FE4F
:0200000490600A
:0100000001FE
:00000001FF